{
  "contractName": "CoinracerNFTMint",
  "abi": [
    {
      "inputs": [
        {
          "internalType": "contract IERC20",
          "name": "_crace",
          "type": "address"
        },
        {
          "internalType": "contract IERC20",
          "name": "_busd",
          "type": "address"
        }
      ],
      "stateMutability": "nonpayable",
      "type": "constructor"
    },
    {
      "anonymous": false,
      "inputs": [
        {
          "indexed": true,
          "internalType": "address",
          "name": "owner",
          "type": "address"
        },
        {
          "indexed": true,
          "internalType": "address",
          "name": "approved",
          "type": "address"
        },
        {
          "indexed": true,
          "internalType": "uint256",
          "name": "tokenId",
          "type": "uint256"
        }
      ],
      "name": "Approval",
      "type": "event"
    },
    {
      "anonymous": false,
      "inputs": [
        {
          "indexed": true,
          "internalType": "address",
          "name": "owner",
          "type": "address"
        },
        {
          "indexed": true,
          "internalType": "address",
          "name": "operator",
          "type": "address"
        },
        {
          "indexed": false,
          "internalType": "bool",
          "name": "approved",
          "type": "bool"
        }
      ],
      "name": "ApprovalForAll",
      "type": "event"
    },
    {
      "anonymous": false,
      "inputs": [
        {
          "indexed": true,
          "internalType": "address",
          "name": "previousOwner",
          "type": "address"
        },
        {
          "indexed": true,
          "internalType": "address",
          "name": "newOwner",
          "type": "address"
        }
      ],
      "name": "OwnershipTransferred",
      "type": "event"
    },
    {
      "anonymous": false,
      "inputs": [
        {
          "indexed": true,
          "internalType": "address",
          "name": "from",
          "type": "address"
        },
        {
          "indexed": true,
          "internalType": "address",
          "name": "to",
          "type": "address"
        },
        {
          "indexed": true,
          "internalType": "uint256",
          "name": "tokenId",
          "type": "uint256"
        }
      ],
      "name": "Transfer",
      "type": "event"
    },
    {
      "inputs": [
        {
          "internalType": "uint256",
          "name": "",
          "type": "uint256"
        }
      ],
      "name": "_data",
      "outputs": [
        {
          "internalType": "string",
          "name": "",
          "type": "string"
        }
      ],
      "stateMutability": "view",
      "type": "function"
    },
    {
      "inputs": [
        {
          "internalType": "address",
          "name": "to",
          "type": "address"
        },
        {
          "internalType": "uint256",
          "name": "tokenId",
          "type": "uint256"
        }
      ],
      "name": "approve",
      "outputs": [],
      "stateMutability": "nonpayable",
      "type": "function"
    },
    {
      "inputs": [
        {
          "internalType": "address",
          "name": "owner",
          "type": "address"
        }
      ],
      "name": "balanceOf",
      "outputs": [
        {
          "internalType": "uint256",
          "name": "",
          "type": "uint256"
        }
      ],
      "stateMutability": "view",
      "type": "function"
    },
    {
      "inputs": [
        {
          "internalType": "uint256",
          "name": "tokenId",
          "type": "uint256"
        }
      ],
      "name": "getApproved",
      "outputs": [
        {
          "internalType": "address",
          "name": "",
          "type": "address"
        }
      ],
      "stateMutability": "view",
      "type": "function"
    },
    {
      "inputs": [
        {
          "internalType": "address",
          "name": "owner",
          "type": "address"
        },
        {
          "internalType": "address",
          "name": "operator",
          "type": "address"
        }
      ],
      "name": "isApprovedForAll",
      "outputs": [
        {
          "internalType": "bool",
          "name": "",
          "type": "bool"
        }
      ],
      "stateMutability": "view",
      "type": "function"
    },
    {
      "inputs": [],
      "name": "maxMintSupply",
      "outputs": [
        {
          "internalType": "uint256",
          "name": "",
          "type": "uint256"
        }
      ],
      "stateMutability": "view",
      "type": "function"
    },
    {
      "inputs": [
        {
          "internalType": "uint256",
          "name": "",
          "type": "uint256"
        }
      ],
      "name": "metadata",
      "outputs": [
        {
          "internalType": "string",
          "name": "",
          "type": "string"
        }
      ],
      "stateMutability": "view",
      "type": "function"
    },
    {
      "inputs": [],
      "name": "mintSupply",
      "outputs": [
        {
          "internalType": "uint256",
          "name": "",
          "type": "uint256"
        }
      ],
      "stateMutability": "view",
      "type": "function"
    },
    {
      "inputs": [],
      "name": "name",
      "outputs": [
        {
          "internalType": "string",
          "name": "",
          "type": "string"
        }
      ],
      "stateMutability": "view",
      "type": "function"
    },
    {
      "inputs": [],
      "name": "owner",
      "outputs": [
        {
          "internalType": "address",
          "name": "",
          "type": "address"
        }
      ],
      "stateMutability": "view",
      "type": "function"
    },
    {
      "inputs": [
        {
          "internalType": "uint256",
          "name": "tokenId",
          "type": "uint256"
        }
      ],
      "name": "ownerOf",
      "outputs": [
        {
          "internalType": "address",
          "name": "",
          "type": "address"
        }
      ],
      "stateMutability": "view",
      "type": "function"
    },
    {
      "inputs": [],
      "name": "pos",
      "outputs": [
        {
          "internalType": "uint256",
          "name": "",
          "type": "uint256"
        }
      ],
      "stateMutability": "view",
      "type": "function"
    },
    {
      "inputs": [],
      "name": "renounceOwnership",
      "outputs": [],
      "stateMutability": "nonpayable",
      "type": "function"
    },
    {
      "inputs": [
        {
          "internalType": "address",
          "name": "from",
          "type": "address"
        },
        {
          "internalType": "address",
          "name": "to",
          "type": "address"
        },
        {
          "internalType": "uint256",
          "name": "tokenId",
          "type": "uint256"
        }
      ],
      "name": "safeTransferFrom",
      "outputs": [],
      "stateMutability": "nonpayable",
      "type": "function"
    },
    {
      "inputs": [
        {
          "internalType": "address",
          "name": "from",
          "type": "address"
        },
        {
          "internalType": "address",
          "name": "to",
          "type": "address"
        },
        {
          "internalType": "uint256",
          "name": "tokenId",
          "type": "uint256"
        },
        {
          "internalType": "bytes",
          "name": "_data",
          "type": "bytes"
        }
      ],
      "name": "safeTransferFrom",
      "outputs": [],
      "stateMutability": "nonpayable",
      "type": "function"
    },
    {
      "inputs": [
        {
          "internalType": "address",
          "name": "operator",
          "type": "address"
        },
        {
          "internalType": "bool",
          "name": "approved",
          "type": "bool"
        }
      ],
      "name": "setApprovalForAll",
      "outputs": [],
      "stateMutability": "nonpayable",
      "type": "function"
    },
    {
      "inputs": [
        {
          "internalType": "bytes4",
          "name": "interfaceId",
          "type": "bytes4"
        }
      ],
      "name": "supportsInterface",
      "outputs": [
        {
          "internalType": "bool",
          "name": "",
          "type": "bool"
        }
      ],
      "stateMutability": "view",
      "type": "function"
    },
    {
      "inputs": [],
      "name": "symbol",
      "outputs": [
        {
          "internalType": "string",
          "name": "",
          "type": "string"
        }
      ],
      "stateMutability": "view",
      "type": "function"
    },
    {
      "inputs": [
        {
          "internalType": "uint256",
          "name": "index",
          "type": "uint256"
        }
      ],
      "name": "tokenByIndex",
      "outputs": [
        {
          "internalType": "uint256",
          "name": "",
          "type": "uint256"
        }
      ],
      "stateMutability": "view",
      "type": "function"
    },
    {
      "inputs": [
        {
          "internalType": "address",
          "name": "owner",
          "type": "address"
        },
        {
          "internalType": "uint256",
          "name": "index",
          "type": "uint256"
        }
      ],
      "name": "tokenOfOwnerByIndex",
      "outputs": [
        {
          "internalType": "uint256",
          "name": "",
          "type": "uint256"
        }
      ],
      "stateMutability": "view",
      "type": "function"
    },
    {
      "inputs": [],
      "name": "totalSupply",
      "outputs": [
        {
          "internalType": "uint256",
          "name": "",
          "type": "uint256"
        }
      ],
      "stateMutability": "view",
      "type": "function"
    },
    {
      "inputs": [
        {
          "internalType": "address",
          "name": "from",
          "type": "address"
        },
        {
          "internalType": "address",
          "name": "to",
          "type": "address"
        },
        {
          "internalType": "uint256",
          "name": "tokenId",
          "type": "uint256"
        }
      ],
      "name": "transferFrom",
      "outputs": [],
      "stateMutability": "nonpayable",
      "type": "function"
    },
    {
      "inputs": [
        {
          "internalType": "address",
          "name": "newOwner",
          "type": "address"
        }
      ],
      "name": "transferOwnership",
      "outputs": [],
      "stateMutability": "nonpayable",
      "type": "function"
    },
    {
      "inputs": [
        {
          "internalType": "uint256",
          "name": "idx",
          "type": "uint256"
        },
        {
          "internalType": "string",
          "name": "data",
          "type": "string"
        }
      ],
      "name": "updateMetadata",
      "outputs": [],
      "stateMutability": "nonpayable",
      "type": "function"
    },
    {
      "inputs": [
        {
          "internalType": "uint256",
          "name": "_minBUSD",
          "type": "uint256"
        }
      ],
      "name": "updateMinBUSD",
      "outputs": [],
      "stateMutability": "nonpayable",
      "type": "function"
    },
    {
      "inputs": [
        {
          "internalType": "uint256",
          "name": "_minCRACE",
          "type": "uint256"
        }
      ],
      "name": "updateMinCRACE",
      "outputs": [],
      "stateMutability": "nonpayable",
      "type": "function"
    },
    {
      "inputs": [
        {
          "internalType": "uint256",
          "name": "_maxSupply",
          "type": "uint256"
        }
      ],
      "name": "updateMaxSupply",
      "outputs": [],
      "stateMutability": "nonpayable",
      "type": "function"
    },
    {
      "inputs": [
        {
          "internalType": "uint256",
          "name": "craceAmount",
          "type": "uint256"
        },
        {
          "internalType": "uint256",
          "name": "busdAmount",
          "type": "uint256"
        },
        {
          "internalType": "uint256",
          "name": "nftAmount",
          "type": "uint256"
        }
      ],
      "name": "mint",
      "outputs": [],
      "stateMutability": "nonpayable",
      "type": "function"
    },
    {
      "inputs": [
        {
          "internalType": "address",
          "name": "addr",
          "type": "address"
        },
        {
          "internalType": "string",
          "name": "data",
          "type": "string"
        }
      ],
      "name": "mintByOwner",
      "outputs": [],
      "stateMutability": "nonpayable",
      "type": "function"
    },
    {
      "inputs": [
        {
          "internalType": "uint256",
          "name": "tokenId",
          "type": "uint256"
        }
      ],
      "name": "tokenURI",
      "outputs": [
        {
          "internalType": "string",
          "name": "",
          "type": "string"
        }
      ],
      "stateMutability": "view",
      "type": "function"
    },
    {
      "inputs": [
        {
          "internalType": "address",
          "name": "recipient",
          "type": "address"
        }
      ],
      "name": "withdrawFunds",
      "outputs": [],
      "stateMutability": "nonpayable",
      "type": "function"
    }
  ],
  "bytecode": "0x608060405260646013553480156200001657600080fd5b5060405162004bc138038062004bc183398181016040528101906200003c919062000394565b6040518060400160405280601681526020017f436f696e72616365724e4654436f6c6c656374696f6e000000000000000000008152506040518060400160405280600881526020017f43524143454e46540000000000000000000000000000000000000000000000008152508160009080519060200190620000c092919062000266565b508060019080519060200190620000d992919062000266565b505050620000fc620000f06200019860201b60201c565b620001a060201b60201c565b611388600b81905550610fa0600d8190555081601460006101000a81548173ffffffffffffffffffffffffffffffffffffffff021916908373ffffffffffffffffffffffffffffffffffffffff16021790555080601560006101000a81548173ffffffffffffffffffffffffffffffffffffffff021916908373ffffffffffffffffffffffffffffffffffffffff160217905550505062000440565b600033905090565b6000600a60009054906101000a900473ffffffffffffffffffffffffffffffffffffffff16905081600a60006101000a81548173ffffffffffffffffffffffffffffffffffffffff021916908373ffffffffffffffffffffffffffffffffffffffff1602179055508173ffffffffffffffffffffffffffffffffffffffff168173ffffffffffffffffffffffffffffffffffffffff167f8be0079c531659141344cd1fd0a4f28419497f9722a3daafe3b4186f6b6457e060405160405180910390a35050565b82805462000274906200040a565b90600052602060002090601f016020900481019282620002985760008555620002e4565b82601f10620002b357805160ff1916838001178555620002e4565b82800160010185558215620002e4579182015b82811115620002e3578251825591602001919060010190620002c6565b5b509050620002f39190620002f7565b5090565b5b8082111562000312576000816000905550600101620002f8565b5090565b600080fd5b600073ffffffffffffffffffffffffffffffffffffffff82169050919050565b600062000348826200031b565b9050919050565b60006200035c826200033b565b9050919050565b6200036e816200034f565b81146200037a57600080fd5b50565b6000815190506200038e8162000363565b92915050565b60008060408385031215620003ae57620003ad62000316565b5b6000620003be858286016200037d565b9250506020620003d1858286016200037d565b9150509250929050565b7f4e487b7100000000000000000000000000000000000000000000000000000000600052602260045260246000fd5b600060028204905060018216806200042357607f821691505b602082108114156200043a5762000439620003db565b5b50919050565b61477180620004506000396000f3fe608060405234801561001057600080fd5b50600436106101e55760003560e01c80636352211e1161010f578063bab20f95116100a2578063e3684e3911610071578063e3684e391461057a578063e985e9c5146105aa578063f103b433146105da578063f2fde38b146105f6576101e5565b8063bab20f95146104f2578063c285e1071461050e578063c56551b61461052c578063c87b56dd1461054a576101e5565b80638da5cb5b116100de5780638da5cb5b1461047e57806395d89b411461049c578063a22cb465146104ba578063b88d4fde146104d6576101e5565b80636352211e146103f857806368742da61461042857806370a0823114610444578063715018a614610474576101e5565b806318160ddd1161018757806342842e0e1161015657806342842e0e146103745780634f6ccce71461039057806353c8388e146103c05780635e86d8a7146103dc576101e5565b806318160ddd146102ee57806323b872dd1461030c5780632f745c59146103285780633f7bb66414610358576101e5565b8063045b7dca116101c3578063045b7dca1461026657806306fdde0314610284578063081812fc146102a2578063095ea7b3146102d2576101e5565b806301ffc9a7146101ea57806302acc94b1461021a57806303a7f82514610236575b600080fd5b61020460048036038101906101ff9190612f41565b610612565b6040516102119190612f89565b60405180910390f35b610234600480360381019061022f9190612fda565b61068c565b005b610250600480360381019061024b919061302d565b610a3f565b60405161025d91906130f3565b60405180910390f35b61026e610adf565b60405161027b9190613124565b60405180910390f35b61028c610ae5565b60405161029991906130f3565b60405180910390f35b6102bc60048036038101906102b7919061302d565b610b77565b6040516102c99190613180565b60405180910390f35b6102ec60048036038101906102e791906131c7565b610bfc565b005b6102f6610d14565b6040516103039190613124565b60405180910390f35b61032660048036038101906103219190613207565b610d21565b005b610342600480360381019061033d91906131c7565b610d81565b60405161034f9190613124565b60405180910390f35b610372600480360381019061036d919061338f565b610e26565b005b61038e60048036038101906103899190613207565b610ef1565b005b6103aa60048036038101906103a5919061302d565b610f11565b6040516103b79190613124565b60405180910390f35b6103da60048036038101906103d591906133eb565b610f82565b005b6103f660048036038101906103f1919061302d565b611085565b005b610412600480360381019061040d919061302d565b61110b565b60405161041f9190613180565b60405180910390f35b610442600480360381019061043d9190613447565b6111bd565b005b61045e60048036038101906104599190613447565b6114fc565b60405161046b9190613124565b60405180910390f35b61047c6115b4565b005b61048661163c565b6040516104939190613180565b60405180910390f35b6104a4611666565b6040516104b191906130f3565b60405180910390f35b6104d460048036038101906104cf91906134a0565b6116f8565b005b6104f060048036038101906104eb9190613581565b61170e565b005b61050c6004803603810190610507919061302d565b611770565b005b6105166117f6565b6040516105239190613124565b60405180910390f35b6105346117fc565b6040516105419190613124565b60405180910390f35b610564600480360381019061055f919061302d565b611802565b60405161057191906130f3565b60405180910390f35b610594600480360381019061058f919061302d565b6118ef565b6040516105a191906130f3565b60405180910390f35b6105c460048036038101906105bf9190613604565b61199b565b6040516105d19190612f89565b60405180910390f35b6105f460048036038101906105ef919061302d565b611a2f565b005b610610600480360381019061060b9190613447565b611af9565b005b60007f780e9d63000000000000000000000000000000000000000000000000000000007bffffffffffffffffffffffffffffffffffffffffffffffffffffffff1916827bffffffffffffffffffffffffffffffffffffffffffffffffffffffff19161480610685575061068482611bf1565b5b9050919050565b60008111801561069d575060058111155b6106dc576040517f08c379a00000000000000000000000000000000000000000000000000000000081526004016106d390613690565b60405180910390fd5b600d5481600c546106ed91906136df565b111561072e576040517f08c379a000000000000000000000000000000000000000000000000000000000815260040161072590613781565b60405180910390fd5b8060105461073c91906137a1565b83101561077e576040517f08c379a000000000000000000000000000000000000000000000000000000000815260040161077590613847565b60405180910390fd5b80600f5461078c91906137a1565b8210156107ce576040517f08c379a00000000000000000000000000000000000000000000000000000000081526004016107c5906138b3565b60405180910390fd5b601460009054906101000a900473ffffffffffffffffffffffffffffffffffffffff1673ffffffffffffffffffffffffffffffffffffffff166323b872dd3330866040518463ffffffff1660e01b815260040161082d939291906138d3565b602060405180830381600087803b15801561084757600080fd5b505af115801561085b573d6000803e3d6000fd5b505050506040513d601f19601f8201168201806040525081019061087f919061391f565b50601560009054906101000a900473ffffffffffffffffffffffffffffffffffffffff1673ffffffffffffffffffffffffffffffffffffffff166323b872dd3330856040518463ffffffff1660e01b81526004016108df939291906138d3565b602060405180830381600087803b1580156108f957600080fd5b505af115801561090d573d6000803e3d6000fd5b505050506040513d601f19601f82011682018060405250810190610931919061391f565b5080601260003373ffffffffffffffffffffffffffffffffffffffff1673ffffffffffffffffffffffffffffffffffffffff168152602001908152602001600020600082825461098191906136df565b9250508190555080600c600082825461099a91906136df565b9250508190555060005b81811015610a395760006109b6611cd3565b90506001600b546109c791906136df565b600b819055506109d933600b54611d35565b600e81815481106109ed576109ec61394c565b5b9060005260206000200160116000600b548152602001908152602001600020908054610a18906139aa565b610a23929190612da5565b5050600181610a3291906136df565b90506109a4565b50505050565b60116020528060005260406000206000915090508054610a5e906139aa565b80601f0160208091040260200160405190810160405280929190818152602001828054610a8a906139aa565b8015610ad75780601f10610aac57610100808354040283529160200191610ad7565b820191906000526020600020905b815481529060010190602001808311610aba57829003601f168201915b505050505081565b600c5481565b606060008054610af4906139aa565b80601f0160208091040260200160405190810160405280929190818152602001828054610b20906139aa565b8015610b6d5780601f10610b4257610100808354040283529160200191610b6d565b820191906000526020600020905b815481529060010190602001808311610b5057829003601f168201915b5050505050905090565b6000610b8282611d53565b610bc1576040517f08c379a0000000000000000000000000000000000000000000000000000000008152600401610bb890613a4e565b60405180910390fd5b6004600083815260200190815260200160002060009054906101000a900473ffffffffffffffffffffffffffffffffffffffff169050919050565b6000610c078261110b565b90508073ffffffffffffffffffffffffffffffffffffffff168373ffffffffffffffffffffffffffffffffffffffff161415610c78576040517f08c379a0000000000000000000000000000000000000000000000000000000008152600401610c6f90613ae0565b60405180910390fd5b8073ffffffffffffffffffffffffffffffffffffffff16610c97611dbf565b73ffffffffffffffffffffffffffffffffffffffff161480610cc65750610cc581610cc0611dbf565b61199b565b5b610d05576040517f08c379a0000000000000000000000000000000000000000000000000000000008152600401610cfc90613b72565b60405180910390fd5b610d0f8383611dc7565b505050565b6000600880549050905090565b610d32610d2c611dbf565b82611e80565b610d71576040517f08c379a0000000000000000000000000000000000000000000000000000000008152600401610d6890613c04565b60405180910390fd5b610d7c838383611f5e565b505050565b6000610d8c836114fc565b8210610dcd576040517f08c379a0000000000000000000000000000000000000000000000000000000008152600401610dc490613c96565b60405180910390fd5b600660008473ffffffffffffffffffffffffffffffffffffffff1673ffffffffffffffffffffffffffffffffffffffff168152602001908152602001600020600083815260200190815260200160002054905092915050565b610e2e611dbf565b73ffffffffffffffffffffffffffffffffffffffff16610e4c61163c565b73ffffffffffffffffffffffffffffffffffffffff1614610ea2576040517f08c379a0000000000000000000000000000000000000000000000000000000008152600401610e9990613d02565b60405180910390fd5b6001600b54610eb191906136df565b600b81905550610ec382600b54611d35565b8060116000600b5481526020019081526020016000209080519060200190610eec929190612e32565b505050565b610f0c8383836040518060200160405280600081525061170e565b505050565b6000610f1b610d14565b8210610f5c576040517f08c379a0000000000000000000000000000000000000000000000000000000008152600401610f5390613d94565b60405180910390fd5b60088281548110610f7057610f6f61394c565b5b90600052602060002001549050919050565b610f8a611dbf565b73ffffffffffffffffffffffffffffffffffffffff16610fa861163c565b73ffffffffffffffffffffffffffffffffffffffff1614610ffe576040517f08c379a0000000000000000000000000000000000000000000000000000000008152600401610ff590613d02565b60405180910390fd5b6000821015801561100f5750600582105b61104e576040517f08c379a000000000000000000000000000000000000000000000000000000000815260040161104590613e00565b60405180910390fd5b80600e83815481106110635761106261394c565b5b906000526020600020019080519060200190611080929190612e32565b505050565b61108d611dbf565b73ffffffffffffffffffffffffffffffffffffffff166110ab61163c565b73ffffffffffffffffffffffffffffffffffffffff1614611101576040517f08c379a00000000000000000000000000000000000000000000000000000000081526004016110f890613d02565b60405180910390fd5b80600f8190555050565b6000806002600084815260200190815260200160002060009054906101000a900473ffffffffffffffffffffffffffffffffffffffff169050600073ffffffffffffffffffffffffffffffffffffffff168173ffffffffffffffffffffffffffffffffffffffff1614156111b4576040517f08c379a00000000000000000000000000000000000000000000000000000000081526004016111ab90613e92565b60405180910390fd5b80915050919050565b6111c5611dbf565b73ffffffffffffffffffffffffffffffffffffffff166111e361163c565b73ffffffffffffffffffffffffffffffffffffffff1614611239576040517f08c379a000000000000000000000000000000000000000000000000000000000815260040161123090613d02565b60405180910390fd5b6000601460009054906101000a900473ffffffffffffffffffffffffffffffffffffffff1673ffffffffffffffffffffffffffffffffffffffff166370a08231306040518263ffffffff1660e01b81526004016112969190613180565b60206040518083038186803b1580156112ae57600080fd5b505afa1580156112c2573d6000803e3d6000fd5b505050506040513d601f19601f820116820180604052508101906112e69190613ec7565b90506000601560009054906101000a900473ffffffffffffffffffffffffffffffffffffffff1673ffffffffffffffffffffffffffffffffffffffff166370a08231306040518263ffffffff1660e01b81526004016113459190613180565b60206040518083038186803b15801561135d57600080fd5b505afa158015611371573d6000803e3d6000fd5b505050506040513d601f19601f820116820180604052508101906113959190613ec7565b9050601460009054906101000a900473ffffffffffffffffffffffffffffffffffffffff1673ffffffffffffffffffffffffffffffffffffffff1663a9059cbb84846040518363ffffffff1660e01b81526004016113f4929190613ef4565b602060405180830381600087803b15801561140e57600080fd5b505af1158015611422573d6000803e3d6000fd5b505050506040513d601f19601f82011682018060405250810190611446919061391f565b50601560009054906101000a900473ffffffffffffffffffffffffffffffffffffffff1673ffffffffffffffffffffffffffffffffffffffff1663a9059cbb84836040518363ffffffff1660e01b81526004016114a4929190613ef4565b602060405180830381600087803b1580156114be57600080fd5b505af11580156114d2573d6000803e3d6000fd5b505050506040513d601f19601f820116820180604052508101906114f6919061391f565b50505050565b60008073ffffffffffffffffffffffffffffffffffffffff168273ffffffffffffffffffffffffffffffffffffffff16141561156d576040517f08c379a000000000000000000000000000000000000000000000000000000000815260040161156490613f8f565b60405180910390fd5b600360008373ffffffffffffffffffffffffffffffffffffffff1673ffffffffffffffffffffffffffffffffffffffff168152602001908152602001600020549050919050565b6115bc611dbf565b73ffffffffffffffffffffffffffffffffffffffff166115da61163c565b73ffffffffffffffffffffffffffffffffffffffff1614611630576040517f08c379a000000000000000000000000000000000000000000000000000000000815260040161162790613d02565b60405180910390fd5b61163a60006121ba565b565b6000600a60009054906101000a900473ffffffffffffffffffffffffffffffffffffffff16905090565b606060018054611675906139aa565b80601f01602080910402602001604051908101604052809291908181526020018280546116a1906139aa565b80156116ee5780601f106116c3576101008083540402835291602001916116ee565b820191906000526020600020905b8154815290600101906020018083116116d157829003601f168201915b5050505050905090565b61170a611703611dbf565b8383612280565b5050565b61171f611719611dbf565b83611e80565b61175e576040517f08c379a000000000000000000000000000000000000000000000000000000000815260040161175590613c04565b60405180910390fd5b61176a848484846123ed565b50505050565b611778611dbf565b73ffffffffffffffffffffffffffffffffffffffff1661179661163c565b73ffffffffffffffffffffffffffffffffffffffff16146117ec576040517f08c379a00000000000000000000000000000000000000000000000000000000081526004016117e390613d02565b60405180910390fd5b8060108190555050565b600d5481565b600b5481565b606061180d82611d53565b61184c576040517f08c379a000000000000000000000000000000000000000000000000000000000815260040161184390614021565b60405180910390fd5b60116000838152602001908152602001600020805461186a906139aa565b80601f0160208091040260200160405190810160405280929190818152602001828054611896906139aa565b80156118e35780601f106118b8576101008083540402835291602001916118e3565b820191906000526020600020905b8154815290600101906020018083116118c657829003601f168201915b50505050509050919050565b600e81815481106118ff57600080fd5b90600052602060002001600091509050805461191a906139aa565b80601f0160208091040260200160405190810160405280929190818152602001828054611946906139aa565b80156119935780601f1061196857610100808354040283529160200191611993565b820191906000526020600020905b81548152906001019060200180831161197657829003601f168201915b505050505081565b6000600560008473ffffffffffffffffffffffffffffffffffffffff1673ffffffffffffffffffffffffffffffffffffffff16815260200190815260200160002060008373ffffffffffffffffffffffffffffffffffffffff1673ffffffffffffffffffffffffffffffffffffffff16815260200190815260200160002060009054906101000a900460ff16905092915050565b611a37611dbf565b73ffffffffffffffffffffffffffffffffffffffff16611a5561163c565b73ffffffffffffffffffffffffffffffffffffffff1614611aab576040517f08c379a0000000000000000000000000000000000000000000000000000000008152600401611aa290613d02565b60405180910390fd5b600d548111611aef576040517f08c379a0000000000000000000000000000000000000000000000000000000008152600401611ae69061408d565b60405180910390fd5b80600d8190555050565b611b01611dbf565b73ffffffffffffffffffffffffffffffffffffffff16611b1f61163c565b73ffffffffffffffffffffffffffffffffffffffff1614611b75576040517f08c379a0000000000000000000000000000000000000000000000000000000008152600401611b6c90613d02565b60405180910390fd5b600073ffffffffffffffffffffffffffffffffffffffff168173ffffffffffffffffffffffffffffffffffffffff161415611be5576040517f08c379a0000000000000000000000000000000000000000000000000000000008152600401611bdc9061411f565b60405180910390fd5b611bee816121ba565b50565b60007f80ac58cd000000000000000000000000000000000000000000000000000000007bffffffffffffffffffffffffffffffffffffffffffffffffffffffff1916827bffffffffffffffffffffffffffffffffffffffffffffffffffffffff19161480611cbc57507f5b5e139f000000000000000000000000000000000000000000000000000000007bffffffffffffffffffffffffffffffffffffffffffffffffffffffff1916827bffffffffffffffffffffffffffffffffffffffffffffffffffffffff1916145b80611ccc5750611ccb82612449565b5b9050919050565b600080611ce2600160646124b3565b905060058111611cf6576000915050611d32565b600a8111611d08576001915050611d32565b60148111611d1a576002915050611d32565b60198111611d2c576003915050611d32565b60049150505b90565b611d4f828260405180602001604052806000815250612534565b5050565b60008073ffffffffffffffffffffffffffffffffffffffff166002600084815260200190815260200160002060009054906101000a900473ffffffffffffffffffffffffffffffffffffffff1673ffffffffffffffffffffffffffffffffffffffff1614159050919050565b600033905090565b816004600083815260200190815260200160002060006101000a81548173ffffffffffffffffffffffffffffffffffffffff021916908373ffffffffffffffffffffffffffffffffffffffff160217905550808273ffffffffffffffffffffffffffffffffffffffff16611e3a8361110b565b73ffffffffffffffffffffffffffffffffffffffff167f8c5be1e5ebec7d5bd14f71427d1e84f3dd0314c0f7b2291e5b200ac8c7c3b92560405160405180910390a45050565b6000611e8b82611d53565b611eca576040517f08c379a0000000000000000000000000000000000000000000000000000000008152600401611ec1906141b1565b60405180910390fd5b6000611ed58361110b565b90508073ffffffffffffffffffffffffffffffffffffffff168473ffffffffffffffffffffffffffffffffffffffff161480611f4457508373ffffffffffffffffffffffffffffffffffffffff16611f2c84610b77565b73ffffffffffffffffffffffffffffffffffffffff16145b80611f555750611f54818561199b565b5b91505092915050565b8273ffffffffffffffffffffffffffffffffffffffff16611f7e8261110b565b73ffffffffffffffffffffffffffffffffffffffff1614611fd4576040517f08c379a0000000000000000000000000000000000000000000000000000000008152600401611fcb90614243565b60405180910390fd5b600073ffffffffffffffffffffffffffffffffffffffff168273ffffffffffffffffffffffffffffffffffffffff161415612044576040517f08c379a000000000000000000000000000000000000000000000000000000000815260040161203b906142d5565b60405180910390fd5b61204f83838361258f565b61205a600082611dc7565b6001600360008573ffffffffffffffffffffffffffffffffffffffff1673ffffffffffffffffffffffffffffffffffffffff16815260200190815260200160002060008282546120aa91906142f5565b925050819055506001600360008473ffffffffffffffffffffffffffffffffffffffff1673ffffffffffffffffffffffffffffffffffffffff168152602001908152602001600020600082825461210191906136df565b92505081905550816002600083815260200190815260200160002060006101000a81548173ffffffffffffffffffffffffffffffffffffffff021916908373ffffffffffffffffffffffffffffffffffffffff160217905550808273ffffffffffffffffffffffffffffffffffffffff168473ffffffffffffffffffffffffffffffffffffffff167fddf252ad1be2c89b69c2b068fc378daa952ba7f163c4a11628f55a4df523b3ef60405160405180910390a4505050565b6000600a60009054906101000a900473ffffffffffffffffffffffffffffffffffffffff16905081600a60006101000a81548173ffffffffffffffffffffffffffffffffffffffff021916908373ffffffffffffffffffffffffffffffffffffffff1602179055508173ffffffffffffffffffffffffffffffffffffffff168173ffffffffffffffffffffffffffffffffffffffff167f8be0079c531659141344cd1fd0a4f28419497f9722a3daafe3b4186f6b6457e060405160405180910390a35050565b8173ffffffffffffffffffffffffffffffffffffffff168373ffffffffffffffffffffffffffffffffffffffff1614156122ef576040517f08c379a00000000000000000000000000000000000000000000000000000000081526004016122e690614375565b60405180910390fd5b80600560008573ffffffffffffffffffffffffffffffffffffffff1673ffffffffffffffffffffffffffffffffffffffff16815260200190815260200160002060008473ffffffffffffffffffffffffffffffffffffffff1673ffffffffffffffffffffffffffffffffffffffff16815260200190815260200160002060006101000a81548160ff0219169083151502179055508173ffffffffffffffffffffffffffffffffffffffff168373ffffffffffffffffffffffffffffffffffffffff167f17307eab39ab6107e8899845ad3d59bd9653f200f220920489ca2b5937696c31836040516123e09190612f89565b60405180910390a3505050565b6123f8848484611f5e565b612404848484846126a3565b612443576040517f08c379a000000000000000000000000000000000000000000000000000000000815260040161243a90614407565b60405180910390fd5b50505050565b60007f01ffc9a7000000000000000000000000000000000000000000000000000000007bffffffffffffffffffffffffffffffffffffffffffffffffffffffff1916827bffffffffffffffffffffffffffffffffffffffffffffffffffffffff1916149050919050565b60008183106124f7576040517f08c379a00000000000000000000000000000000000000000000000000000000081526004016124ee90614473565b60405180910390fd5b600061250161283a565b90506000848461251191906142f5565b905084818361252091906144c2565b61252a91906136df565b9250505092915050565b61253e838361288c565b61254b60008484846126a3565b61258a576040517f08c379a000000000000000000000000000000000000000000000000000000000815260040161258190614407565b60405180910390fd5b505050565b61259a838383612a5a565b600073ffffffffffffffffffffffffffffffffffffffff168373ffffffffffffffffffffffffffffffffffffffff1614156125dd576125d881612a5f565b61261c565b8173ffffffffffffffffffffffffffffffffffffffff168373ffffffffffffffffffffffffffffffffffffffff161461261b5761261a8382612aa8565b5b5b600073ffffffffffffffffffffffffffffffffffffffff168273ffffffffffffffffffffffffffffffffffffffff16141561265f5761265a81612c15565b61269e565b8273ffffffffffffffffffffffffffffffffffffffff168273ffffffffffffffffffffffffffffffffffffffff161461269d5761269c8282612ce6565b5b5b505050565b60006126c48473ffffffffffffffffffffffffffffffffffffffff16612d65565b1561282d578373ffffffffffffffffffffffffffffffffffffffff1663150b7a026126ed611dbf565b8786866040518563ffffffff1660e01b815260040161270f9493929190614548565b602060405180830381600087803b15801561272957600080fd5b505af192505050801561275a57506040513d601f19601f8201168201806040525081019061275791906145a9565b60015b6127dd573d806000811461278a576040519150601f19603f3d011682016040523d82523d6000602084013e61278f565b606091505b506000815114156127d5576040517f08c379a00000000000000000000000000000000000000000000000000000000081526004016127cc90614407565b60405180910390fd5b805181602001fd5b63150b7a0260e01b7bffffffffffffffffffffffffffffffffffffffffffffffffffffffff1916817bffffffffffffffffffffffffffffffffffffffffffffffffffffffff191614915050612832565b600190505b949350505050565b600080612845612d78565b905044428260000154604051602001612860939291906145f7565b6040516020818303038152906040528051906020012060001c8160000181905550806000015491505090565b600073ffffffffffffffffffffffffffffffffffffffff168273ffffffffffffffffffffffffffffffffffffffff1614156128fc576040517f08c379a00000000000000000000000000000000000000000000000000000000081526004016128f390614680565b60405180910390fd5b61290581611d53565b15612945576040517f08c379a000000000000000000000000000000000000000000000000000000000815260040161293c906146ec565b60405180910390fd5b6129516000838361258f565b6001600360008473ffffffffffffffffffffffffffffffffffffffff1673ffffffffffffffffffffffffffffffffffffffff16815260200190815260200160002060008282546129a191906136df565b92505081905550816002600083815260200190815260200160002060006101000a81548173ffffffffffffffffffffffffffffffffffffffff021916908373ffffffffffffffffffffffffffffffffffffffff160217905550808273ffffffffffffffffffffffffffffffffffffffff16600073ffffffffffffffffffffffffffffffffffffffff167fddf252ad1be2c89b69c2b068fc378daa952ba7f163c4a11628f55a4df523b3ef60405160405180910390a45050565b505050565b6008805490506009600083815260200190815260200160002081905550600881908060018154018082558091505060019003906000526020600020016000909190919091505550565b60006001612ab5846114fc565b612abf91906142f5565b9050600060076000848152602001908152602001600020549050818114612ba4576000600660008673ffffffffffffffffffffffffffffffffffffffff1673ffffffffffffffffffffffffffffffffffffffff168152602001908152602001600020600084815260200190815260200160002054905080600660008773ffffffffffffffffffffffffffffffffffffffff1673ffffffffffffffffffffffffffffffffffffffff168152602001908152602001600020600084815260200190815260200160002081905550816007600083815260200190815260200160002081905550505b6007600084815260200190815260200160002060009055600660008573ffffffffffffffffffffffffffffffffffffffff1673ffffffffffffffffffffffffffffffffffffffff16815260200190815260200160002060008381526020019081526020016000206000905550505050565b60006001600880549050612c2991906142f5565b9050600060096000848152602001908152602001600020549050600060088381548110612c5957612c5861394c565b5b906000526020600020015490508060088381548110612c7b57612c7a61394c565b5b906000526020600020018190555081600960008381526020019081526020016000208190555060096000858152602001908152602001600020600090556008805480612cca57612cc961470c565b5b6001900381819060005260206000200160009055905550505050565b6000612cf1836114fc565b905081600660008573ffffffffffffffffffffffffffffffffffffffff1673ffffffffffffffffffffffffffffffffffffffff168152602001908152602001600020600083815260200190815260200160002081905550806007600084815260200190815260200160002081905550505050565b600080823b905060008111915050919050565b6000807fc8fcad8db84d3cc18b4c41d551ea0ee66dd599cde068d998e57d5e09332c131c90508091505090565b828054612db1906139aa565b90600052602060002090601f016020900481019282612dd35760008555612e21565b82601f10612de45780548555612e21565b82800160010185558215612e2157600052602060002091601f016020900482015b82811115612e20578254825591600101919060010190612e05565b5b509050612e2e9190612eb8565b5090565b828054612e3e906139aa565b90600052602060002090601f016020900481019282612e605760008555612ea7565b82601f10612e7957805160ff1916838001178555612ea7565b82800160010185558215612ea7579182015b82811115612ea6578251825591602001919060010190612e8b565b5b509050612eb49190612eb8565b5090565b5b80821115612ed1576000816000905550600101612eb9565b5090565b6000604051905090565b600080fd5b600080fd5b60007fffffffff0000000000000000000000000000000000000000000000000000000082169050919050565b612f1e81612ee9565b8114612f2957600080fd5b50565b600081359050612f3b81612f15565b92915050565b600060208284031215612f5757612f56612edf565b5b6000612f6584828501612f2c565b91505092915050565b60008115159050919050565b612f8381612f6e565b82525050565b6000602082019050612f9e6000830184612f7a565b92915050565b6000819050919050565b612fb781612fa4565b8114612fc257600080fd5b50565b600081359050612fd481612fae565b92915050565b600080600060608486031215612ff357612ff2612edf565b5b600061300186828701612fc5565b935050602061301286828701612fc5565b925050604061302386828701612fc5565b9150509250925092565b60006020828403121561304357613042612edf565b5b600061305184828501612fc5565b91505092915050565b600081519050919050565b600082825260208201905092915050565b60005b83811015613094578082015181840152602081019050613079565b838111156130a3576000848401525b50505050565b6000601f19601f8301169050919050565b60006130c58261305a565b6130cf8185613065565b93506130df818560208601613076565b6130e8816130a9565b840191505092915050565b6000602082019050818103600083015261310d81846130ba565b905092915050565b61311e81612fa4565b82525050565b60006020820190506131396000830184613115565b92915050565b600073ffffffffffffffffffffffffffffffffffffffff82169050919050565b600061316a8261313f565b9050919050565b61317a8161315f565b82525050565b60006020820190506131956000830184613171565b92915050565b6131a48161315f565b81146131af57600080fd5b50565b6000813590506131c18161319b565b92915050565b600080604083850312156131de576131dd612edf565b5b60006131ec858286016131b2565b92505060206131fd85828601612fc5565b9150509250929050565b6000806000606084860312156132205761321f612edf565b5b600061322e868287016131b2565b935050602061323f868287016131b2565b925050604061325086828701612fc5565b9150509250925092565b600080fd5b600080fd5b7f4e487b7100000000000000000000000000000000000000000000000000000000600052604160045260246000fd5b61329c826130a9565b810181811067ffffffffffffffff821117156132bb576132ba613264565b5b80604052505050565b60006132ce612ed5565b90506132da8282613293565b919050565b600067ffffffffffffffff8211156132fa576132f9613264565b5b613303826130a9565b9050602081019050919050565b82818337600083830152505050565b600061333261332d846132df565b6132c4565b90508281526020810184848401111561334e5761334d61325f565b5b613359848285613310565b509392505050565b600082601f8301126133765761337561325a565b5b813561338684826020860161331f565b91505092915050565b600080604083850312156133a6576133a5612edf565b5b60006133b4858286016131b2565b925050602083013567ffffffffffffffff8111156133d5576133d4612ee4565b5b6133e185828601613361565b9150509250929050565b6000806040838503121561340257613401612edf565b5b600061341085828601612fc5565b925050602083013567ffffffffffffffff81111561343157613430612ee4565b5b61343d85828601613361565b9150509250929050565b60006020828403121561345d5761345c612edf565b5b600061346b848285016131b2565b91505092915050565b61347d81612f6e565b811461348857600080fd5b50565b60008135905061349a81613474565b92915050565b600080604083850312156134b7576134b6612edf565b5b60006134c5858286016131b2565b92505060206134d68582860161348b565b9150509250929050565b600067ffffffffffffffff8211156134fb576134fa613264565b5b613504826130a9565b9050602081019050919050565b600061352461351f846134e0565b6132c4565b9050828152602081018484840111156135405761353f61325f565b5b61354b848285613310565b509392505050565b600082601f8301126135685761356761325a565b5b8135613578848260208601613511565b91505092915050565b6000806000806080858703121561359b5761359a612edf565b5b60006135a9878288016131b2565b94505060206135ba878288016131b2565b93505060406135cb87828801612fc5565b925050606085013567ffffffffffffffff8111156135ec576135eb612ee4565b5b6135f887828801613553565b91505092959194509250565b6000806040838503121561361b5761361a612edf565b5b6000613629858286016131b2565b925050602061363a858286016131b2565b9150509250929050565b7f4d696e743a2077726f6e67204e465420616d6f756e7400000000000000000000600082015250565b600061367a601683613065565b915061368582613644565b602082019050919050565b600060208201905081810360008301526136a98161366d565b9050919050565b7f4e487b7100000000000000000000000000000000000000000000000000000000600052601160045260246000fd5b60006136ea82612fa4565b91506136f583612fa4565b9250827fffffffffffffffffffffffffffffffffffffffffffffffffffffffffffffffff0382111561372a576137296136b0565b5b828201905092915050565b7f4d696e743a20657863656564206d696e7420737570706c790000000000000000600082015250565b600061376b601883613065565b915061377682613735565b602082019050919050565b6000602082019050818103600083015261379a8161375e565b9050919050565b60006137ac82612fa4565b91506137b783612fa4565b9250817fffffffffffffffffffffffffffffffffffffffffffffffffffffffffffffffff04831182151516156137f0576137ef6136b0565b5b828202905092915050565b7f556e646572204352414345206c696d6974000000000000000000000000000000600082015250565b6000613831601183613065565b915061383c826137fb565b602082019050919050565b6000602082019050818103600083015261386081613824565b9050919050565b7f556e6465722042555344206c696d697400000000000000000000000000000000600082015250565b600061389d601083613065565b91506138a882613867565b602082019050919050565b600060208201905081810360008301526138cc81613890565b9050919050565b60006060820190506138e86000830186613171565b6138f56020830185613171565b6139026040830184613115565b949350505050565b60008151905061391981613474565b92915050565b60006020828403121561393557613934612edf565b5b60006139438482850161390a565b91505092915050565b7f4e487b7100000000000000000000000000000000000000000000000000000000600052603260045260246000fd5b7f4e487b7100000000000000000000000000000000000000000000000000000000600052602260045260246000fd5b600060028204905060018216806139c257607f821691505b602082108114156139d6576139d561397b565b5b50919050565b7f4552433732313a20617070726f76656420717565727920666f72206e6f6e657860008201527f697374656e7420746f6b656e0000000000000000000000000000000000000000602082015250565b6000613a38602c83613065565b9150613a43826139dc565b604082019050919050565b60006020820190508181036000830152613a6781613a2b565b9050919050565b7f4552433732313a20617070726f76616c20746f2063757272656e74206f776e6560008201527f7200000000000000000000000000000000000000000000000000000000000000602082015250565b6000613aca602183613065565b9150613ad582613a6e565b604082019050919050565b60006020820190508181036000830152613af981613abd565b9050919050565b7f4552433732313a20617070726f76652063616c6c6572206973206e6f74206f7760008201527f6e6572206e6f7220617070726f76656420666f7220616c6c0000000000000000602082015250565b6000613b5c603883613065565b9150613b6782613b00565b604082019050919050565b60006020820190508181036000830152613b8b81613b4f565b9050919050565b7f4552433732313a207472616e736665722063616c6c6572206973206e6f74206f60008201527f776e6572206e6f7220617070726f766564000000000000000000000000000000602082015250565b6000613bee603183613065565b9150613bf982613b92565b604082019050919050565b60006020820190508181036000830152613c1d81613be1565b9050919050565b7f455243373231456e756d657261626c653a206f776e657220696e646578206f7560008201527f74206f6620626f756e6473000000000000000000000000000000000000000000602082015250565b6000613c80602b83613065565b9150613c8b82613c24565b604082019050919050565b60006020820190508181036000830152613caf81613c73565b9050919050565b7f4f776e61626c653a2063616c6c6572206973206e6f7420746865206f776e6572600082015250565b6000613cec602083613065565b9150613cf782613cb6565b602082019050919050565b60006020820190508181036000830152613d1b81613cdf565b9050919050565b7f455243373231456e756d657261626c653a20676c6f62616c20696e646578206f60008201527f7574206f6620626f756e64730000000000000000000000000000000000000000602082015250565b6000613d7e602c83613065565b9150613d8982613d22565b604082019050919050565b60006020820190508181036000830152613dad81613d71565b9050919050565b7f496e76616c696420436172205479706500000000000000000000000000000000600082015250565b6000613dea601083613065565b9150613df582613db4565b602082019050919050565b60006020820190508181036000830152613e1981613ddd565b9050919050565b7f4552433732313a206f776e657220717565727920666f72206e6f6e657869737460008201527f656e7420746f6b656e0000000000000000000000000000000000000000000000602082015250565b6000613e7c602983613065565b9150613e8782613e20565b604082019050919050565b60006020820190508181036000830152613eab81613e6f565b9050919050565b600081519050613ec181612fae565b92915050565b600060208284031215613edd57613edc612edf565b5b6000613eeb84828501613eb2565b91505092915050565b6000604082019050613f096000830185613171565b613f166020830184613115565b9392505050565b7f4552433732313a2062616c616e636520717565727920666f7220746865207a6560008201527f726f206164647265737300000000000000000000000000000000000000000000602082015250565b6000613f79602a83613065565b9150613f8482613f1d565b604082019050919050565b60006020820190508181036000830152613fa881613f6c565b9050919050565b7f4552433732314d657461646174613a2055524920717565727920666f72206e6f60008201527f6e6578697374656e7420746f6b656e0000000000000000000000000000000000602082015250565b600061400b602f83613065565b915061401682613faf565b604082019050919050565b6000602082019050818103600083015261403a81613ffe565b9050919050565b7f5468617420616d6f756e7420616c726561647920657869737473000000000000600082015250565b6000614077601a83613065565b915061408282614041565b602082019050919050565b600060208201905081810360008301526140a68161406a565b9050919050565b7f4f776e61626c653a206e6577206f776e657220697320746865207a65726f206160008201527f6464726573730000000000000000000000000000000000000000000000000000602082015250565b6000614109602683613065565b9150614114826140ad565b604082019050919050565b60006020820190508181036000830152614138816140fc565b9050919050565b7f4552433732313a206f70657261746f7220717565727920666f72206e6f6e657860008201527f697374656e7420746f6b656e0000000000000000000000000000000000000000602082015250565b600061419b602c83613065565b91506141a68261413f565b604082019050919050565b600060208201905081810360008301526141ca8161418e565b9050919050565b7f4552433732313a207472616e73666572206f6620746f6b656e2074686174206960008201527f73206e6f74206f776e0000000000000000000000000000000000000000000000602082015250565b600061422d602983613065565b9150614238826141d1565b604082019050919050565b6000602082019050818103600083015261425c81614220565b9050919050565b7f4552433732313a207472616e7366657220746f20746865207a65726f2061646460008201527f7265737300000000000000000000000000000000000000000000000000000000602082015250565b60006142bf602483613065565b91506142ca82614263565b604082019050919050565b600060208201905081810360008301526142ee816142b2565b9050919050565b600061430082612fa4565b915061430b83612fa4565b92508282101561431e5761431d6136b0565b5b828203905092915050565b7f4552433732313a20617070726f766520746f2063616c6c657200000000000000600082015250565b600061435f601983613065565b915061436a82614329565b602082019050919050565b6000602082019050818103600083015261438e81614352565b9050919050565b7f4552433732313a207472616e7366657220746f206e6f6e20455243373231526560008201527f63656976657220696d706c656d656e7465720000000000000000000000000000602082015250565b60006143f1603283613065565b91506143fc82614395565b604082019050919050565b60006020820190508181036000830152614420816143e4565b9050919050565b7f446f674c69623a20496e76616c69642072616e6765206f662072616e646f6d00600082015250565b600061445d601f83613065565b915061446882614427565b602082019050919050565b6000602082019050818103600083015261448c81614450565b9050919050565b7f4e487b7100000000000000000000000000000000000000000000000000000000600052601260045260246000fd5b60006144cd82612fa4565b91506144d883612fa4565b9250826144e8576144e7614493565b5b828206905092915050565b600081519050919050565b600082825260208201905092915050565b600061451a826144f3565b61452481856144fe565b9350614534818560208601613076565b61453d816130a9565b840191505092915050565b600060808201905061455d6000830187613171565b61456a6020830186613171565b6145776040830185613115565b8181036060830152614589818461450f565b905095945050505050565b6000815190506145a381612f15565b92915050565b6000602082840312156145bf576145be612edf565b5b60006145cd84828501614594565b91505092915050565b6000819050919050565b6145f16145ec82612fa4565b6145d6565b82525050565b600061460382866145e0565b60208201915061461382856145e0565b60208201915061462382846145e0565b602082019150819050949350505050565b7f4552433732313a206d696e7420746f20746865207a65726f2061646472657373600082015250565b600061466a602083613065565b915061467582614634565b602082019050919050565b600060208201905081810360008301526146998161465d565b9050919050565b7f4552433732313a20746f6b656e20616c7265616479206d696e74656400000000600082015250565b60006146d6601c83613065565b91506146e1826146a0565b602082019050919050565b60006020820190508181036000830152614705816146c9565b9050919050565b7f4e487b7100000000000000000000000000000000000000000000000000000000600052603160045260246000fdfea26469706673582212202b2c8d150936ef006ea3d565bc8995afcc04706f8c0f7074ef9995d56b3c4a4364736f6c63430008090033",
  "immutableReferences": {},
  "source": "// SPDX-License-Identifier: UNLICENSED\npragma solidity ^0.8.0;\n\nimport \"@openzeppelin/contracts/token/ERC721/extensions/ERC721Enumerable.sol\";\nimport \"@openzeppelin/contracts/token/ERC20/IERC20.sol\";\nimport \"@openzeppelin/contracts/access/Ownable.sol\";\nimport \"./libraries/NFTLib.sol\";\n\ncontract CoinracerNFTMint is ERC721Enumerable, Ownable {\n\tuint256 public pos;\t//new tokenID\n\tuint256 public mintSupply;\t//current nft counts\n\tuint256 public maxMintSupply;\t//nft count limit\n\tstring[] public metadata;\t//array that stores the uri of 5 types cars\n\tuint256 private minBUSD;\t//the busd part of nft price\n\tuint256 private minCRACE;\t//the crace part of nft price\n\tmapping(uint256 => string) public _data;\t//the metadata of each nft (tokenID => uri)\n\tmapping(address => uint256) private _mintAmount;\t//\n\tuint256 price = 100; // USD\n\n\tIERC20 crace;\n\tIERC20 busd;\n\n\n\tconstructor(IERC20 _crace, IERC20 _busd) ERC721(\"CoinracerNFTCollection\", \"CRACENFT\") {\n\t\tpos = 5000;\n\t\tmaxMintSupply = 4000;\n\t\tcrace = _crace;\n\t\tbusd = _busd;\n\t}\n\n\t//this function let the owner to add or change the uri of nft\n\t//idx => the type index of the car\n\t//data => the new nft uri\n\tfunction updateMetadata(uint256 idx, string memory data) external onlyOwner {\n\t\trequire(idx >= 0 && idx <5, \"Invalid Car Type\");\n\t\tmetadata[idx] = data;\n\t}\n\n\t//this function let the owner to set the price of the nft (busd)\n\tfunction updateMinBUSD(uint256 _minBUSD) external onlyOwner {\n\t\tminBUSD = _minBUSD;\n\t}\n\n\t//this function let the owner to set the price of the nft (crace)\n\tfunction updateMinCRACE(uint256 _minCRACE) external onlyOwner {\n\t\tminCRACE = _minCRACE;\n\t}\n\n\t//extense the maxSupply if owner wants\n\tfunction updateMaxSupply(uint256 _maxSupply) external onlyOwner {\n\t\trequire(_maxSupply > maxMintSupply, \"That amount already exists\");\n\t\tmaxMintSupply = _maxSupply;\n\t}\n\n\t//anyone can call this function but cannot exceed the total supply\n\tfunction mint(uint256 craceAmount, uint256 busdAmount, uint256 nftAmount) external {\n\t\trequire(nftAmount > 0 && nftAmount <= 5, \"Mint: wrong NFT amount\");\n\t\trequire(mintSupply + nftAmount <= maxMintSupply, \"Mint: exceed mint supply\");\n\t\trequire(craceAmount >= minCRACE * nftAmount, \"Under CRACE limit\");\n\t\trequire(busdAmount >= minBUSD * nftAmount, \"Under BUSD limit\");\n\n\t\tcrace.transferFrom(msg.sender, address(this), craceAmount);\n\t\tbusd.transferFrom(msg.sender, address(this), busdAmount);\n\n\t\t_mintAmount[msg.sender] += nftAmount;\n\t\tmintSupply += nftAmount;\n\n\t\tfor (uint256 i = 0 ; i < nftAmount ; i = i + 1) {\n\t\t\tuint256 idx = NFTLib.chance();\n\t\t\tpos = pos + 1;\n\t\t\t_safeMint(msg.sender, pos);\n\t\t\t_data[pos] = metadata[idx];\n\t\t}\n\t}\n\n\t//only owner can call this function. the uri depends on owner's will\n\tfunction mintByOwner(address addr, string memory data) external onlyOwner {\n\t\tpos = pos + 1;\n\t\t_safeMint(addr, pos);\n\t\t_data[pos] = data;\n\t}\n\n\t//this function returns the token(tokenId)'s uri\n\tfunction tokenURI(uint256 tokenId) public view override returns (string memory) {\n        require(_exists(tokenId), \"ERC721Metadata: URI query for nonexistent token\");\n\t\treturn _data[tokenId];\n\t}\n\n\t//ownable function that transfers the funds in this contract to the owner's wallet\n\tfunction withdrawFunds(address recipient) external onlyOwner {\n\t\tuint256 craceBalance = crace.balanceOf(address(this));\n\t\tuint256 busdBalance = busd.balanceOf(address(this));\n\t\tcrace.transfer(recipient, craceBalance);\n\t\tbusd.transfer(recipient, busdBalance);\n\t}\n}",
  "sourcePath": "E:\\Project\\Contracts\\Coinracer-NFT-mint\\contracts\\CoinracerNFTMint.sol",
  "compiler": {
    "name": "solc",
    "version": "0.8.9+commit.e5eed63a.Emscripten.clang"
  },
  "schemaVersion": "3.4.3",
  "updatedAt": "2022-02-10T13:05:06.659Z",
  "devdoc": {
    "kind": "dev",
    "methods": {
      "approve(address,uint256)": {
        "details": "See {IERC721-approve}."
      },
      "balanceOf(address)": {
        "details": "See {IERC721-balanceOf}."
      },
      "getApproved(uint256)": {
        "details": "See {IERC721-getApproved}."
      },
      "isApprovedForAll(address,address)": {
        "details": "See {IERC721-isApprovedForAll}."
      },
      "name()": {
        "details": "See {IERC721Metadata-name}."
      },
      "owner()": {
        "details": "Returns the address of the current owner."
      },
      "ownerOf(uint256)": {
        "details": "See {IERC721-ownerOf}."
      },
      "renounceOwnership()": {
        "details": "Leaves the contract without owner. It will not be possible to call `onlyOwner` functions anymore. Can only be called by the current owner. NOTE: Renouncing ownership will leave the contract without an owner, thereby removing any functionality that is only available to the owner."
      },
      "safeTransferFrom(address,address,uint256)": {
        "details": "See {IERC721-safeTransferFrom}."
      },
      "safeTransferFrom(address,address,uint256,bytes)": {
        "details": "See {IERC721-safeTransferFrom}."
      },
      "setApprovalForAll(address,bool)": {
        "details": "See {IERC721-setApprovalForAll}."
      },
      "supportsInterface(bytes4)": {
        "details": "See {IERC165-supportsInterface}."
      },
      "symbol()": {
        "details": "See {IERC721Metadata-symbol}."
      },
      "tokenByIndex(uint256)": {
        "details": "See {IERC721Enumerable-tokenByIndex}."
      },
      "tokenOfOwnerByIndex(address,uint256)": {
        "details": "See {IERC721Enumerable-tokenOfOwnerByIndex}."
      },
      "tokenURI(uint256)": {
        "details": "See {IERC721Metadata-tokenURI}."
      },
      "totalSupply()": {
        "details": "See {IERC721Enumerable-totalSupply}."
      },
      "transferFrom(address,address,uint256)": {
        "details": "See {IERC721-transferFrom}."
      },
      "transferOwnership(address)": {
        "details": "Transfers ownership of the contract to a new account (`newOwner`). Can only be called by the current owner."
      }
    },
    "version": 1
  },
  "userdoc": {
    "kind": "user",
    "methods": {},
    "version": 1
  }
}